:020000040000FA
:10000000000400101D0100002D010000250100006A
:1000100000000000000000000000000000000000E0
:1000200000000000000000000000000027010000A8
:100030000000000000000000290100002B0100006A
:100040002D0100002D010000000000002D01000026
:100050002D0100002D010000000000000000000044
:100060002D0100002D0100002D0100002D010000D8
:100070002D0100002D010000000000002D010000F6
:100080000000000000000000000000000000000070
:100090000000000000000000000000000000000060
:1000A0002D0100002D0100002D0100002D01000098
:1000B0002D0100002D0100002D0100002D01000088
:1000C0000448854600F090F800F07EF800480047AC
:1000D0000D020000000400100FE001210E4800F0A6
:1000E0000FF97D20C00000F0E9FA00210A4800F075
:1000F00007F97D20C00000F0E1FAEEE770B5064D8B
:1001000002241821284600F054F82146284600F021
:1001100087F900BF70BD00001C0100100448804733
:1001200004480047FEE7FEE7FEE7FEE7FEE70000C3
:1001300071020000C100000030B50B4601460020EE
:100140002022012409E00D46D5409D4205D31D46DD
:100150009540491B2546954040191546521E002DD5
:10016000F1DC30BD10B5431A934209D283188818C8
:1001700003E0401E01785B1E1970521EF9D210BDBB
:1001800003460B439B0703D009E008C9121F08C0B0
:10019000042AFAD203E00B780370401C491C521E5B
:1001A000F9D210BDD2B201E00270401C491EFBD250
:1001B00070470022F6E710B513460A460446194672
:1001C000FFF7F0FF204610BD70B5054C054D03E06C
:1001D000206800198047241DAC42F9D170BD000091
:1001E0008008000084080000064C0125064E05E04A
:1001F000E36807CC2B430C3C98471034B442F7D348
:10020000FFF762FF600800008008000010B500F0F2
:100210008EF900F08BF9FFF75FFF10BDF3B5134EB9
:1002200081B0B4680F46B068002819D10125214675
:100230002D07681A2C46002801DDC02804DBC022E7
:100240002846FFF78FFF0AE0002082008B58A3505A
:10025000531812195B68801C53603028F5D3B560C1
:10026000019880000019076403B0F0BD00ED00E0C4
:1002700030B410480168104A114301600F48002152
:100280000160012343604168C907FCD00C49412249
:100290008A600C4A946B8025AC439463CA68D20789
:1002A000FCD0032101634363416BC907FCD0836326
:1002B00030BC7047808004408000040040800440CF
:1002C000008004400082044002E008C8121F08C1F8
:1002D000002AFAD170477047002001E001C1121FC7
:1002E000002AFBD1704710B502460020105600F0DE
:1002F00021F910BD10B500F0E3F810BDFFFFFFFFBE
:10030000F8B504460D462F463E4600BF00BF00BF6D
:1003100000202056401C002804D12422084909A0AE
:10032000FFF7E8FF00BF002E03D0E16860680860B7
:1003300002E021696068086000BF00BF2046F8BD88
:10034000D80600006F626A2D3E70696E20213D2044
:100350002850696E4E616D65294E430070B50446A4
:10036000002020560D46401C04D13D2209490AA018
:10037000FFF7C0FF002D07D0012D04D1A068016850
:1003800062681143016070BDA068016862689143B2
:10039000F8E70000980700006F626A2D3E70696EF2
:1003A00020213D202850696E4E616D65294E430025
:1003B00070B504460170481C23D012480D460168F0
:1003C000012600290DD106600F4801684022114323
:1003D00001600E48426801158A43426042680A4340
:1003E00042600021284600F0A3F8E806C00E8640CF
:1003F00007486660E0600748206107486061074879
:10040000A06070BDC40000108080044000800440E3
:10041000002200A0802200A0002100A0002000A057
:1004200070B50D4604460026FFF7C2FF6D1C12D0C2
:10043000A057401C04D1242207490848FFF75AFF5F
:1004400021696068086001212046FFF787FF314677
:100450002046FFF748FF70BD30070000A8040000E9
:10046000F8B504460E4600271546FFF7A1FF761C97
:1004700016D0E057401C04D124220A490AA0FFF7F5
:1004800039FF6068002D01D0E16800E02169086053
:1004900001212046FFF762FF39462046FFF723FF80
:1004A000F8BD0000300700006F626A2D3E70696E73
:1004B00020213D202850696E4E616D65294E430014
:1004C00086B072B602216846FFF7AAFF694600208F
:1004D0000856401C04D124220D490EA0FFF70AFF44
:1004E000039901980860962000F0E8F8694600201A
:1004F0000856401C04D12422054906A0FFF7FAFE45
:10050000049901980860962000F0D8F8DEE7000012
:10051000300700006F626A2D3E70696E20213D2019
:100520002850696E4E616D65294E430070477047D3
:100530007047000070B504460D46401C10D00A2CD0
:100540000DD00B2C0BD00C49A0000A58042D1068BC
:100550000CD018218843A907C90E0143116070BD52
:100560002222064906A0FFF7C5FEECE70121890219
:100570000843106070BD0000CC000010FC070000B4
:1005800070696E20213D202850696E4E616D65298D
:100590004E4300000149012048637047C0400050AD
:1005A0000248016B4908490001637047C040005090
:1005B00010B5FFF7EFFF0D4C206800280ED000F0BB
:1005C00017F821680A68101A00280ADC8868206079
:1005D0006268002AF0D048689047EDE7FFF7E0FF37
:1005E00010BD086800F048F810BD000014010010AC
:1005F00010B518490868002828D10120164A08605B
:10060000136801020B431360144A53680B43536091
:10061000134C216801432160A0880C210843A0806D
:10062000114810490068FFF787FDA1884001203874
:100630000843A080A08804218843A0800B4909209A
:10064000FFF7ECFD01200A494002086009480068F4
:1006500010BD0000C80000108080044000800440ED
:100660000040005040420F00C0000010B1050000E3
:1006700000E100E0404000500C498B880422134305
:100680008B800B4B18608888904388800948016BE9
:10069000C90709D1084992024A600B680122134335
:1006A0000B60016B11430163704700000040005074
:1006B00000410050C04000500043005070B57D2103
:1006C000C90048430446FFF793FF0546FFF790FF34
:1006D000401BA042FAD370BD2E2E5C2E2E5C2E2E17
:1006E0005C6D6265642D6D61737465725C627569C1
:1006F0006C645C6D6265645C5441524745545F4C68
:1007000050433831305C5441524745545F4E585045
:100710005C5441524745545F4C50433831585C67F4
:1007200070696F5F6F626A6563742E680000000015
:10073000433A5C55736572735C616E7474695C44B2
:100740006F63756D656E74735C6D6265642D6D614C
:10075000737465725C6275696C645C6D6265645C1F
:100760005441524745545F4C50433831305C5441FA
:10077000524745545F4E58505C5441524745545F70
:100780004C50433831585C6770696F5F6F626A65BF
:1007900063742E6800000000433A5C557365727301
:1007A0005C616E7474695C446F63756D656E7473BF
:1007B0005C6D6265642D6D61737465725C6C6962F9
:1007C0007261726965735C6D6265645C74617267A5
:1007D0006574735C68616C5C5441524745545F4E6C
:1007E00058505C5441524745545F4C50433831583F
:1007F0005C6770696F5F6170692E6300433A5C5596
:10080000736572735C616E7474695C446F63756D5B
:10081000656E74735C6D6265642D6D617374657271
:100820005C6C69627261726965735C6D6265645C5F
:10083000746172676574735C68616C5C54415247A3
:1008400045545F4E58505C5441524745545F4C509C
:10085000433831585C70696E6D61702E6300000022
:1008600084080000C00000105C000000C802000006
:10087000E00800001C01001018000000D802000071
:100880007DF8FFFF00366E01000000000000000050
:10089000444004402C4004401840044014400440AC
:1008A000104004400C400440404004403C400440A0
:1008B0003840044034400440204004401C40044080
:1008C000084004400440044048400440284004409C
:1008D00024400440004004400000000000000000EC
:04000005000000C136
:00000001FF
